{
    "contractName": "StakedToken",
    "abi": [
        {
            "inputs": [
                {
                    "internalType": "string",
                    "name": "name_",
                    "type": "string"
                },
                {
                    "internalType": "string",
                    "name": "symbol_",
                    "type": "string"
                },
                {
                    "internalType": "uint8",
                    "name": "decimals_",
                    "type": "uint8"
                },
                {
                    "internalType": "uint256",
                    "name": "maxSupply_",
                    "type": "uint256"
                },
                {
                    "internalType": "uint256",
                    "name": "initialSupply_",
                    "type": "uint256"
                }
            ],
            "stateMutability": "nonpayable",
            "type": "constructor"
        },
        {
            "anonymous": false,
            "inputs": [
                {
                    "indexed": true,
                    "internalType": "address",
                    "name": "owner",
                    "type": "address"
                },
                {
                    "indexed": true,
                    "internalType": "address",
                    "name": "spender",
                    "type": "address"
                },
                {
                    "indexed": false,
                    "internalType": "uint256",
                    "name": "value",
                    "type": "uint256"
                }
            ],
            "name": "Approval",
            "type": "event"
        },
        {
            "anonymous": false,
            "inputs": [
                {
                    "indexed": false,
                    "internalType": "address",
                    "name": "supplyController",
                    "type": "address"
                }
            ],
            "name": "LogSupplyControllerUpdated",
            "type": "event"
        },
        {
            "anonymous": false,
            "inputs": [
                {
                    "indexed": false,
                    "internalType": "uint256",
                    "name": "oldTotalSupply",
                    "type": "uint256"
                },
                {
                    "indexed": false,
                    "internalType": "uint256",
                    "name": "supplyIncrease",
                    "type": "uint256"
                },
                {
                    "indexed": false,
                    "internalType": "uint256",
                    "name": "newTotalSupply",
                    "type": "uint256"
                }
            ],
            "name": "LogTokenDistribution",
            "type": "event"
        },
        {
            "anonymous": false,
            "inputs": [
                {
                    "indexed": true,
                    "internalType": "address",
                    "name": "previousOwner",
                    "type": "address"
                },
                {
                    "indexed": true,
                    "internalType": "address",
                    "name": "newOwner",
                    "type": "address"
                }
            ],
            "name": "OwnershipTransferred",
            "type": "event"
        },
        {
            "anonymous": false,
            "inputs": [
                {
                    "indexed": true,
                    "internalType": "address",
                    "name": "destination",
                    "type": "address"
                },
                {
                    "indexed": false,
                    "internalType": "uint256",
                    "name": "index",
                    "type": "uint256"
                },
                {
                    "indexed": false,
                    "internalType": "bytes",
                    "name": "data",
                    "type": "bytes"
                }
            ],
            "name": "TransactionFailed",
            "type": "event"
        },
        {
            "anonymous": false,
            "inputs": [
                {
                    "indexed": true,
                    "internalType": "address",
                    "name": "from",
                    "type": "address"
                },
                {
                    "indexed": true,
                    "internalType": "address",
                    "name": "to",
                    "type": "address"
                },
                {
                    "indexed": false,
                    "internalType": "uint256",
                    "name": "value",
                    "type": "uint256"
                }
            ],
            "name": "Transfer",
            "type": "event"
        },
        {
            "inputs": [
                {
                    "internalType": "address",
                    "name": "destination",
                    "type": "address"
                },
                {
                    "internalType": "bytes",
                    "name": "data",
                    "type": "bytes"
                }
            ],
            "name": "addTransaction",
            "outputs": [],
            "stateMutability": "nonpayable",
            "type": "function"
        },
        {
            "inputs": [
                {
                    "internalType": "address",
                    "name": "owner_",
                    "type": "address"
                },
                {
                    "internalType": "address",
                    "name": "spender",
                    "type": "address"
                }
            ],
            "name": "allowance",
            "outputs": [
                {
                    "internalType": "uint256",
                    "name": "",
                    "type": "uint256"
                }
            ],
            "stateMutability": "view",
            "type": "function"
        },
        {
            "inputs": [
                {
                    "internalType": "address",
                    "name": "spender",
                    "type": "address"
                },
                {
                    "internalType": "uint256",
                    "name": "value",
                    "type": "uint256"
                }
            ],
            "name": "approve",
            "outputs": [
                {
                    "internalType": "bool",
                    "name": "",
                    "type": "bool"
                }
            ],
            "stateMutability": "nonpayable",
            "type": "function"
        },
        {
            "inputs": [
                {
                    "internalType": "address",
                    "name": "who",
                    "type": "address"
                }
            ],
            "name": "balanceOf",
            "outputs": [
                {
                    "internalType": "uint256",
                    "name": "",
                    "type": "uint256"
                }
            ],
            "stateMutability": "view",
            "type": "function"
        },
        {
            "inputs": [
                {
                    "internalType": "uint256",
                    "name": "amount",
                    "type": "uint256"
                }
            ],
            "name": "burn",
            "outputs": [],
            "stateMutability": "nonpayable",
            "type": "function"
        },
        {
            "inputs": [],
            "name": "decimals",
            "outputs": [
                {
                    "internalType": "uint8",
                    "name": "",
                    "type": "uint8"
                }
            ],
            "stateMutability": "view",
            "type": "function"
        },
        {
            "inputs": [
                {
                    "internalType": "address",
                    "name": "spender",
                    "type": "address"
                },
                {
                    "internalType": "uint256",
                    "name": "subtractedValue",
                    "type": "uint256"
                }
            ],
            "name": "decreaseAllowance",
            "outputs": [
                {
                    "internalType": "bool",
                    "name": "",
                    "type": "bool"
                }
            ],
            "stateMutability": "nonpayable",
            "type": "function"
        },
        {
            "inputs": [
                {
                    "internalType": "uint256",
                    "name": "supplyChange_",
                    "type": "uint256"
                }
            ],
            "name": "distributeTokens",
            "outputs": [
                {
                    "internalType": "uint256",
                    "name": "",
                    "type": "uint256"
                }
            ],
            "stateMutability": "nonpayable",
            "type": "function"
        },
        {
            "inputs": [
                {
                    "internalType": "address",
                    "name": "spender",
                    "type": "address"
                },
                {
                    "internalType": "uint256",
                    "name": "addedValue",
                    "type": "uint256"
                }
            ],
            "name": "increaseAllowance",
            "outputs": [
                {
                    "internalType": "bool",
                    "name": "",
                    "type": "bool"
                }
            ],
            "stateMutability": "nonpayable",
            "type": "function"
        },
        {
            "inputs": [
                {
                    "internalType": "address",
                    "name": "account",
                    "type": "address"
                },
                {
                    "internalType": "uint256",
                    "name": "amount",
                    "type": "uint256"
                }
            ],
            "name": "mint",
            "outputs": [],
            "stateMutability": "nonpayable",
            "type": "function"
        },
        {
            "inputs": [],
            "name": "name",
            "outputs": [
                {
                    "internalType": "string",
                    "name": "",
                    "type": "string"
                }
            ],
            "stateMutability": "view",
            "type": "function"
        },
        {
            "inputs": [],
            "name": "owner",
            "outputs": [
                {
                    "internalType": "address",
                    "name": "",
                    "type": "address"
                }
            ],
            "stateMutability": "view",
            "type": "function"
        },
        {
            "inputs": [
                {
                    "internalType": "uint256",
                    "name": "index",
                    "type": "uint256"
                }
            ],
            "name": "removeTransaction",
            "outputs": [],
            "stateMutability": "nonpayable",
            "type": "function"
        },
        {
            "inputs": [],
            "name": "renounceOwnership",
            "outputs": [],
            "stateMutability": "nonpayable",
            "type": "function"
        },
        {
            "inputs": [
                {
                    "internalType": "address",
                    "name": "supplyController_",
                    "type": "address"
                }
            ],
            "name": "setSupplyController",
            "outputs": [],
            "stateMutability": "nonpayable",
            "type": "function"
        },
        {
            "inputs": [
                {
                    "internalType": "uint256",
                    "name": "index",
                    "type": "uint256"
                },
                {
                    "internalType": "bool",
                    "name": "enabled",
                    "type": "bool"
                }
            ],
            "name": "setTransactionEnabled",
            "outputs": [],
            "stateMutability": "nonpayable",
            "type": "function"
        },
        {
            "inputs": [
                {
                    "internalType": "address",
                    "name": "who",
                    "type": "address"
                }
            ],
            "name": "sharesOf",
            "outputs": [
                {
                    "internalType": "uint256",
                    "name": "",
                    "type": "uint256"
                }
            ],
            "stateMutability": "view",
            "type": "function"
        },
        {
            "inputs": [],
            "name": "supplyController",
            "outputs": [
                {
                    "internalType": "address",
                    "name": "",
                    "type": "address"
                }
            ],
            "stateMutability": "view",
            "type": "function"
        },
        {
            "inputs": [],
            "name": "symbol",
            "outputs": [
                {
                    "internalType": "string",
                    "name": "",
                    "type": "string"
                }
            ],
            "stateMutability": "view",
            "type": "function"
        },
        {
            "inputs": [],
            "name": "totalShares",
            "outputs": [
                {
                    "internalType": "uint256",
                    "name": "",
                    "type": "uint256"
                }
            ],
            "stateMutability": "view",
            "type": "function"
        },
        {
            "inputs": [],
            "name": "totalSupply",
            "outputs": [
                {
                    "internalType": "uint256",
                    "name": "",
                    "type": "uint256"
                }
            ],
            "stateMutability": "view",
            "type": "function"
        },
        {
            "inputs": [
                {
                    "internalType": "uint256",
                    "name": "",
                    "type": "uint256"
                }
            ],
            "name": "transactions",
            "outputs": [
                {
                    "internalType": "bool",
                    "name": "enabled",
                    "type": "bool"
                },
                {
                    "internalType": "address",
                    "name": "destination",
                    "type": "address"
                },
                {
                    "internalType": "bytes",
                    "name": "data",
                    "type": "bytes"
                }
            ],
            "stateMutability": "view",
            "type": "function"
        },
        {
            "inputs": [],
            "name": "transactionsSize",
            "outputs": [
                {
                    "internalType": "uint256",
                    "name": "",
                    "type": "uint256"
                }
            ],
            "stateMutability": "view",
            "type": "function"
        },
        {
            "inputs": [
                {
                    "internalType": "address",
                    "name": "to",
                    "type": "address"
                },
                {
                    "internalType": "uint256",
                    "name": "value",
                    "type": "uint256"
                }
            ],
            "name": "transfer",
            "outputs": [
                {
                    "internalType": "bool",
                    "name": "",
                    "type": "bool"
                }
            ],
            "stateMutability": "nonpayable",
            "type": "function"
        },
        {
            "inputs": [
                {
                    "internalType": "address",
                    "name": "from",
                    "type": "address"
                },
                {
                    "internalType": "address",
                    "name": "to",
                    "type": "address"
                },
                {
                    "internalType": "uint256",
                    "name": "value",
                    "type": "uint256"
                }
            ],
            "name": "transferFrom",
            "outputs": [
                {
                    "internalType": "bool",
                    "name": "",
                    "type": "bool"
                }
            ],
            "stateMutability": "nonpayable",
            "type": "function"
        },
        {
            "inputs": [
                {
                    "internalType": "address",
                    "name": "newOwner",
                    "type": "address"
                }
            ],
            "name": "transferOwnership",
            "outputs": [],
            "stateMutability": "nonpayable",
            "type": "function"
        }
    ],
    "bytecode": "60806040523480156200001157600080fd5b506040516200224a3803806200224a833981810160405260a08110156200003757600080fd5b81019080805160405193929190846401000000008211156200005857600080fd5b9083019060208201858111156200006e57600080fd5b82516401000000008111828201881017156200008957600080fd5b82525081516020918201929091019080838360005b83811015620000b85781810151838201526020016200009e565b50505050905090810190601f168015620000e65780820380516001836020036101000a031916815260200191505b50604052602001805160405193929190846401000000008211156200010a57600080fd5b9083019060208201858111156200012057600080fd5b82516401000000008111828201881017156200013b57600080fd5b82525081516020918201929091019080838360005b838110156200016a57818101518382015260200162000150565b50505050905090810190601f168015620001985780820380516001836020036101000a031916815260200191505b5060409081526020820151908201516060909201519093509091506000620001c86001600160e01b036200030116565b600080546001600160a01b0319166001600160a01b0383169081178255604051929350917f8be0079c531659141344cd1fd0a4f28419497f9722a3daafe3b4186f6b6457e0908290a3508451620002279060089060208801906200045e565b5083516200023d9060099060208701906200045e565b50600a805460ff191660ff851617905560018054336001600160a01b03199091161790556200027b6000198362000306602090811b620017da17901c565b600381905560028390556004829055620002a390829062000359602090811b6200182317901c565b60058190553360008181526006602090815260408083209490945560045484519081529351929391927fddf252ad1be2c89b69c2b068fc378daa952ba7f163c4a11628f55a4df523b3ef9281900390910190a3505050505062000500565b335b90565b60006200035083836040518060400160405280601a81526020017f536166654d6174683a206469766973696f6e206279207a65726f000000000000815250620003b760201b60201c565b90505b92915050565b6000826200036a5750600062000353565b828202828482816200037857fe5b0414620003505760405162461bcd60e51b8152600401808060200182810382526021815260200180620022296021913960400191505060405180910390fd5b60008183620004475760405162461bcd60e51b81526004018080602001828103825283818151815260200191508051906020019080838360005b838110156200040b578181015183820152602001620003f1565b50505050905090810190601f168015620004395780820380516001836020036101000a031916815260200191505b509250505060405180910390fd5b5060008385816200045457fe5b0495945050505050565b828054600181600116156101000203166002900490600052602060002090601f016020900481019282601f10620004a157805160ff1916838001178555620004d1565b82800160010185558215620004d1579182015b82811115620004d1578251825591602001919060010190620004b4565b50620004df929150620004e3565b5090565b6200030391905b80821115620004df5760008155600101620004ea565b611d1980620005106000396000f3fe608060405234801561001057600080fd5b506004361061018e5760003560e01c806370a08231116100de5780639ace38c211610097578063dd62ed3e11610071578063dd62ed3e146105eb578063e7ba101214610619578063f2fde38b14610621578063f5eb42dc146106475761018e565b80639ace38c2146104da578063a457c2d714610593578063a9059cbb146105bf5761018e565b806370a082311461045b578063715018a6146104815780637366794e146104895780638da5cb5b146104a657806391d4ec18146104ca57806395d89b41146104d25761018e565b8063395093511161014b57806342966c681161012557806342966c68146103d657806346c3bd1f146103f357806352875bc3146104105780636e9dde99146104365761018e565b806339509351146103765780633a98ef39146103a257806340c10f19146103aa5761018e565b806306fdde0314610193578063095ea7b314610210578063126e19be1461025057806318160ddd1461030857806323b872dd14610322578063313ce56714610358575b600080fd5b61019b61066d565b6040805160208082528351818301528351919283929083019185019080838360005b838110156101d55781810151838201526020016101bd565b50505050905090810190601f1680156102025780820380516001836020036101000a031916815260200191505b509250505060405180910390f35b61023c6004803603604081101561022657600080fd5b506001600160a01b038135169060200135610704565b604080519115158252519081900360200190f35b6103066004803603604081101561026657600080fd5b6001600160a01b03823516919081019060408101602082013564010000000081111561029157600080fd5b8201836020820111156102a357600080fd5b803590602001918460018302840111640100000000831117156102c557600080fd5b91908080601f01602080910402602001604051908101604052809392919081815260200183838082843760009201919091525092955061076b945050505050565b005b61031061088c565b60408051918252519081900360200190f35b61023c6004803603606081101561033857600080fd5b506001600160a01b03813581169160208101359091169060400135610892565b610360610a12565b6040805160ff9092168252519081900360200190f35b61023c6004803603604081101561038c57600080fd5b506001600160a01b038135169060200135610a1b565b610310610ab4565b610306600480360360408110156103c057600080fd5b506001600160a01b038135169060200135610aba565b610306600480360360208110156103ec57600080fd5b5035610be2565b6103066004803603602081101561040957600080fd5b5035610cd0565b6103066004803603602081101561042657600080fd5b50356001600160a01b0316610e68565b6103066004803603604081101561044c57600080fd5b50803590602001351515610f1a565b6103106004803603602081101561047157600080fd5b50356001600160a01b0316610fe3565b610306611011565b6103106004803603602081101561049f57600080fd5b50356110b3565b6104ae611364565b604080516001600160a01b039092168252519081900360200190f35b610310611373565b61019b611379565b6104f7600480360360208110156104f057600080fd5b50356113da565b6040518084151515158152602001836001600160a01b03166001600160a01b0316815260200180602001828103825283818151815260200191508051906020019080838360005b8381101561055657818101518382015260200161053e565b50505050905090810190601f1680156105835780820380516001836020036101000a031916815260200191505b5094505050505060405180910390f35b61023c600480360360408110156105a957600080fd5b506001600160a01b03813516906020013561149f565b61023c600480360360408110156105d557600080fd5b506001600160a01b03813516906020013561158e565b6103106004803603604081101561060157600080fd5b506001600160a01b038135811691602001351661168d565b6104ae6116b8565b6103066004803603602081101561063757600080fd5b50356001600160a01b03166116c7565b6103106004803603602081101561065d57600080fd5b50356001600160a01b03166117bf565b60088054604080516020601f60026000196101006001881615020190951694909404938401819004810282018101909252828152606093909290918301828280156106f95780601f106106ce576101008083540402835291602001916106f9565b820191906000526020600020905b8154815290600101906020018083116106dc57829003601f168201915b505050505090505b90565b3360008181526007602090815260408083206001600160a01b038716808552908352818420869055815186815291519394909390927f8c5be1e5ebec7d5bd14f71427d1e84f3dd0314c0f7b2291e5b200ac8c7c3b925928290030190a35060015b92915050565b61077361187c565b6000546001600160a01b039081169116146107c3576040805162461bcd60e51b81526020600482018190526024820152600080516020611c77833981519152604482015290519081900360640190fd5b6040805160608101825260018082526001600160a01b038086166020808501918252948401868152600b80549485018155600052845160029094027f0175b7a638427703f0dbe7bb9bbf987a2551717b34e79f33b5b1008d1fa01db981018054935190941661010002610100600160a81b031995151560ff19909416939093179490941691909117825551805193949193610885937f0175b7a638427703f0dbe7bb9bbf987a2551717b34e79f33b5b1008d1fa01dba01929190910190611a3b565b5050505050565b60045490565b6000826001600160a01b0381166108a857600080fd5b6001600160a01b0381163014156108be57600080fd5b61090c83604051806060016040528060288152602001611c4f602891396001600160a01b0388166000908152600760209081526040808320338452909152902054919063ffffffff61188016565b6001600160a01b038616600090815260076020908152604080832033845290915281209190915560035461094790859063ffffffff61182316565b905061098c816040518060600160405280602e8152602001611c00602e91396001600160a01b038916600090815260066020526040902054919063ffffffff61188016565b6001600160a01b0380881660009081526006602052604080822093909355908716815220546109c1908263ffffffff61191716565b6001600160a01b0380871660008181526006602090815260409182902094909455805188815290519193928a1692600080516020611cc483398151915292918290030190a350600195945050505050565b600a5460ff1690565b3360009081526007602090815260408083206001600160a01b0386168452909152812054610a4f908363ffffffff61191716565b3360008181526007602090815260408083206001600160a01b0389168085529083529281902085905580519485525191937f8c5be1e5ebec7d5bd14f71427d1e84f3dd0314c0f7b2291e5b200ac8c7c3b925929081900390910190a350600192915050565b60055490565b6001546001600160a01b03163314610ad157600080fd5b6001600160a01b038216610b2c576040805162461bcd60e51b815260206004820152601f60248201527f45524332303a206d696e7420746f20746865207a65726f206164647265737300604482015290519081900360640190fd5b600454610b3f908263ffffffff61191716565b600455600354600090610b5990839063ffffffff61182316565b600554909150610b6f908263ffffffff61191716565b6005556001600160a01b038316600090815260066020526040902054610b9b908263ffffffff61191716565b6001600160a01b0384166000818152600660209081526040808320949094558351868152935192939192600080516020611cc48339815191529281900390910190a3505050565b6001546001600160a01b03163314610bf957600080fd5b6003543390600090610c1290849063ffffffff61182316565b9050610c5781604051806060016040528060228152602001611b90602291396001600160a01b038516600090815260066020526040902054919063ffffffff61188016565b6001600160a01b038316600090815260066020526040902055600554610c83908263ffffffff61197116565b600555600454610c99908463ffffffff61197116565b6004556040805184815290516000916001600160a01b03851691600080516020611cc48339815191529181900360200190a3505050565b610cd861187c565b6000546001600160a01b03908116911614610d28576040805162461bcd60e51b81526020600482018190526024820152600080516020611c77833981519152604482015290519081900360640190fd5b600b548110610d74576040805162461bcd60e51b8152602060048201526013602482015272696e646578206f7574206f6620626f756e647360681b604482015290519081900360640190fd5b600b5460001901811015610e2557600b80546000198101908110610d9457fe5b9060005260206000209060020201600b8281548110610daf57fe5b6000918252602090912082546002928302909101805460ff191660ff9092161515919091178082558354610100600160a81b0319909116610100918290046001600160a01b03168202178255600180850180549394610e21948387019492938116159092026000190190911604611ab9565b5050505b600b805480610e3057fe5b60008281526020812060026000199093019283020180546001600160a81b031916815590610e616001830182611b2e565b5050905550565b610e7061187c565b6000546001600160a01b03908116911614610ec0576040805162461bcd60e51b81526020600482018190526024820152600080516020611c77833981519152604482015290519081900360640190fd5b600180546001600160a01b0319166001600160a01b03838116919091179182905560408051929091168252517f029a507d186991fa7c3a83eff39b1586a07b8af908075fd0a86a6cb199a211be916020908290030190a150565b610f2261187c565b6000546001600160a01b03908116911614610f72576040805162461bcd60e51b81526020600482018190526024820152600080516020611c77833981519152604482015290519081900360640190fd5b600b548210610fb25760405162461bcd60e51b8152600401808060200182810382526028815260200180611bd86028913960400191505060405180910390fd5b80600b8381548110610fc057fe5b60009182526020909120600290910201805460ff19169115159190911790555050565b6003546001600160a01b0382166000908152600660205260408120549091610765919063ffffffff6117da16565b61101961187c565b6000546001600160a01b03908116911614611069576040805162461bcd60e51b81526020600482018190526024820152600080516020611c77833981519152604482015290519081900360640190fd5b600080546040516001600160a01b03909116907f8be0079c531659141344cd1fd0a4f28419497f9722a3daafe3b4186f6b6457e0908390a3600080546001600160a01b0319169055565b6001546000906001600160a01b031633146110cd57600080fd5b6004546000906110e3908463ffffffff61191716565b6005549091506110f9908263ffffffff6117da16565b60038190556005546111109163ffffffff6117da16565b6004546040805191825260208201869052818101839052519192507f92deeb66dae77be91f2db4972a63e6d866ab3056a39f4ea212265daed77051d0919081900360600190a1600481905560005b600b54811015611359576000600b828154811061117757fe5b60009182526020909120600290910201805490915060ff16156113505780546001808301805460408051602060026101009685161587026000190190941693909304601f810184900484028201840190925281815260009561123f9590046001600160a01b03169390929091908301828280156112355780601f1061120a57610100808354040283529160200191611235565b820191906000526020600020905b81548152906001019060200180831161121857829003601f168201915b50505050506119b3565b90508061134e5781546040805185815260208101828152600180870180546002610100938216158402600019019091160494840185905294046001600160a01b0316937f8091ecaaa54ebb82e02d36c2c336528e0fcb9b3430fc1291ac88295032b9c2639388939192906060830190849080156112fd5780601f106112d2576101008083540402835291602001916112fd565b820191906000526020600020905b8154815290600101906020018083116112e057829003601f168201915b5050935050505060405180910390a26040805162461bcd60e51b8152602060048201526012602482015271151c985b9cd858dd1a5bdb8811985a5b195960721b604482015290519081900360640190fd5b505b5060010161115e565b505060045492915050565b6000546001600160a01b031690565b600b5490565b60098054604080516020601f60026000196101006001881615020190951694909404938401819004810282018101909252828152606093909290918301828280156106f95780601f106106ce576101008083540402835291602001916106f9565b600b81815481106113e757fe5b6000918252602091829020600291820201805460018083018054604080516101009483161585026000190190921696909604601f810188900488028201880190965285815260ff84169750919092046001600160a01b031694929390928301828280156114955780601f1061146a57610100808354040283529160200191611495565b820191906000526020600020905b81548152906001019060200180831161147857829003601f168201915b5050505050905083565b3360009081526007602090815260408083206001600160a01b03861684529091528120548083106114f3573360009081526007602090815260408083206001600160a01b0388168452909152812055611528565b611503818463ffffffff61197116565b3360009081526007602090815260408083206001600160a01b03891684529091529020555b3360008181526007602090815260408083206001600160a01b0389168085529083529281902054815190815290519293927f8c5be1e5ebec7d5bd14f71427d1e84f3dd0314c0f7b2291e5b200ac8c7c3b925929181900390910190a35060019392505050565b6000826001600160a01b0381166115a457600080fd5b6001600160a01b0381163014156115ba57600080fd5b60006115d16003548561182390919063ffffffff16565b905061160d816040518060600160405280602d8152602001611c97602d913933600090815260066020526040902054919063ffffffff61188016565b33600090815260066020526040808220929092556001600160a01b0387168152205461163f908263ffffffff61191716565b6001600160a01b038616600081815260066020908152604091829020939093558051878152905191923392600080516020611cc48339815191529281900390910190a3506001949350505050565b6001600160a01b03918216600090815260076020908152604080832093909416825291909152205490565b6001546001600160a01b031681565b6116cf61187c565b6000546001600160a01b0390811691161461171f576040805162461bcd60e51b81526020600482018190526024820152600080516020611c77833981519152604482015290519081900360640190fd5b6001600160a01b0381166117645760405162461bcd60e51b8152600401808060200182810382526026815260200180611bb26026913960400191505060405180910390fd5b600080546040516001600160a01b03808516939216917f8be0079c531659141344cd1fd0a4f28419497f9722a3daafe3b4186f6b6457e091a3600080546001600160a01b0319166001600160a01b0392909216919091179055565b6001600160a01b031660009081526006602052604090205490565b600061181c83836040518060400160405280601a81526020017f536166654d6174683a206469766973696f6e206279207a65726f0000000000008152506119d6565b9392505050565b60008261183257506000610765565b8282028284828161183f57fe5b041461181c5760405162461bcd60e51b8152600401808060200182810382526021815260200180611c2e6021913960400191505060405180910390fd5b3390565b6000818484111561190f5760405162461bcd60e51b81526004018080602001828103825283818151815260200191508051906020019080838360005b838110156118d45781810151838201526020016118bc565b50505050905090810190601f1680156119015780820380516001836020036101000a031916815260200191505b509250505060405180910390fd5b505050900390565b60008282018381101561181c576040805162461bcd60e51b815260206004820152601b60248201527f536166654d6174683a206164646974696f6e206f766572666c6f770000000000604482015290519081900360640190fd5b600061181c83836040518060400160405280601e81526020017f536166654d6174683a207375627472616374696f6e206f766572666c6f770000815250611880565b6000806040516020840160008286518360008a6187965a03f19695505050505050565b60008183611a255760405162461bcd60e51b81526020600482018181528351602484015283519092839260449091019190850190808383600083156118d45781810151838201526020016118bc565b506000838581611a3157fe5b0495945050505050565b828054600181600116156101000203166002900490600052602060002090601f016020900481019282601f10611a7c57805160ff1916838001178555611aa9565b82800160010185558215611aa9579182015b82811115611aa9578251825591602001919060010190611a8e565b50611ab5929150611b75565b5090565b828054600181600116156101000203166002900490600052602060002090601f016020900481019282601f10611af25780548555611aa9565b82800160010185558215611aa957600052602060002091601f016020900482015b82811115611aa9578254825591600101919060010190611b13565b50805460018160011615610100020316600290046000825580601f10611b545750611b72565b601f016020900490600052602060002090810190611b729190611b75565b50565b61070191905b80821115611ab55760008155600101611b7b56fe45524332303a206275726e20616d6f756e7420657863656564732062616c616e63654f776e61626c653a206e6577206f776e657220697320746865207a65726f2061646472657373696e646578206d75737420626520696e2072616e6765206f662073746f726564207478206c69737445524332303a207472616e7366657220616d6f756e742065786365656473206163636f756e742062616c616e6365536166654d6174683a206d756c7469706c69636174696f6e206f766572666c6f7745524332303a207472616e7366657220616d6f756e74206578636565647320616c6c6f77616e63654f776e61626c653a2063616c6c6572206973206e6f7420746865206f776e657245524332303a207472616e7366657220616d6f756e7420657863656564206163636f756e742062616c616e6365ddf252ad1be2c89b69c2b068fc378daa952ba7f163c4a11628f55a4df523b3efa2646970667358221220cadfd72de30d3efca775798f31efd58a028d7d12c1d2ff1bae4a51d7b52585f964736f6c634300060a0033536166654d6174683a206d756c7469706c69636174696f6e206f766572666c6f77",
    "sourcePath": "c:/Dev/stakehound-core/contracts/StakedToken.sol",
    "compiler": {
        "name": "solc",
        "version": "0.6.10+commit.00c0fcaf"
    },
    "functionHashes": {
        "addTransaction(address,bytes)": "126e19be",
        "allowance(address,address)": "dd62ed3e",
        "approve(address,uint256)": "095ea7b3",
        "balanceOf(address)": "70a08231",
        "burn(uint256)": "42966c68",
        "decimals()": "313ce567",
        "decreaseAllowance(address,uint256)": "a457c2d7",
        "distributeTokens(uint256)": "7366794e",
        "increaseAllowance(address,uint256)": "39509351",
        "mint(address,uint256)": "40c10f19",
        "name()": "06fdde03",
        "owner()": "8da5cb5b",
        "removeTransaction(uint256)": "46c3bd1f",
        "renounceOwnership()": "715018a6",
        "setSupplyController(address)": "52875bc3",
        "setTransactionEnabled(uint256,bool)": "6e9dde99",
        "sharesOf(address)": "f5eb42dc",
        "supplyController()": "e7ba1012",
        "symbol()": "95d89b41",
        "totalShares()": "3a98ef39",
        "totalSupply()": "18160ddd",
        "transactions(uint256)": "9ace38c2",
        "transactionsSize()": "91d4ec18",
        "transfer(address,uint256)": "a9059cbb",
        "transferFrom(address,address,uint256)": "23b872dd",
        "transferOwnership(address)": "f2fde38b"
    },
    "gasEstimates": {
        "creation": {
            "codeDepositCost": "1489800",
            "executionCost": "infinite",
            "totalCost": "infinite"
        },
        "external": {
            "addTransaction(address,bytes)": "infinite",
            "allowance(address,address)": "1294",
            "approve(address,uint256)": "22324",
            "balanceOf(address)": "infinite",
            "burn(uint256)": "infinite",
            "decimals()": "1147",
            "decreaseAllowance(address,uint256)": "infinite",
            "distributeTokens(uint256)": "infinite",
            "increaseAllowance(address,uint256)": "infinite",
            "mint(address,uint256)": "infinite",
            "name()": "infinite",
            "owner()": "1126",
            "removeTransaction(uint256)": "infinite",
            "renounceOwnership()": "infinite",
            "setSupplyController(address)": "infinite",
            "setTransactionEnabled(uint256,bool)": "infinite",
            "sharesOf(address)": "1252",
            "supplyController()": "1103",
            "symbol()": "infinite",
            "totalShares()": "1066",
            "totalSupply()": "1088",
            "transactions(uint256)": "infinite",
            "transactionsSize()": "1109",
            "transfer(address,uint256)": "infinite",
            "transferFrom(address,address,uint256)": "infinite",
            "transferOwnership(address)": "infinite"
        },
        "internal": {
            "externalCall(address,bytes memory)": "infinite"
        }
    }
}